:100000000C942A000C943F000C943F000C943F0089
:100010000C943F000C943F000C943F000C943F0064
:100020000C943F000C943F000C943F000C943F0054
:100030000C943F000C943F000C943F000C943F0044
:100040000C943F000C943F000C943F000C943F0034
:100050000C943F0011241FBECFE5D8E0DEBFCDBF1A
:1000600010E0A0E6B0E0E0E0F1E002C005900D9203
:10007000A037B107D9F70E9441000C947E000C9480
:1000800000008FEF84BB80EF8ABB40E130E220E4C8
:1000900090E84BBB80916B0085BB5FED63E984E02A
:1000A000515060408040E1F700C000003BBB8091B0
:1000B0006A0085BB5FED63E984E051506040804099
:1000C000E1F700C000002BBB80916D0085BB5FEDA8
:1000D00063E984E0515060408040E1F700C00000D7
:1000E0009BBB80916F0085BB5FED63E984E051505D
:1000F00060408040E1F700C00000CBCFF894FFCF14
:100100003F065B4F666D7D077F6F777C395E797147
:00000001FF
