:100000000C942A000C9434000C9434000C943400AA
:100010000C9434000C9434000C9434000C94340090
:100020000C9434000C9434000C9434000C94340080
:100030000C9434000C9434000C9434000C94340070
:100040000C9434000C9434000C9434000C94340060
:100050000C94340011241FBECFE5D8E0DEBFCDBF25
:100060000E9436000C94E1000C9400008FEF84BBDA
:1000700081E092E024E038E040E150E260E470E8A2
:1000800085BBAFE9E6E8F1E0A150E040F040E1F7E0
:1000900000C0000095BBAFE9E6E8F1E0A150E04008
:1000A000F040E1F700C0000025BBAFE9E6E8F1E071
:1000B000A150E040F040E1F700C0000035BBAFE9DF
:1000C000E6E8F1E0A150E040F040E1F700C00000B8
:1000D00045BBAFE9E6E8F1E0A150E040F040E1F7D0
:1000E00000C0000055BBAFE9E6E8F1E0A150E040F8
:1000F000F040E1F700C0000065BBAFE9E6E8F1E0E1
:10010000A150E040F040E1F700C0000075BBAFE94E
:10011000E6E8F1E0A150E040F040E1F700C0000067
:1001200075BBAFE9E6E8F1E0A150E040F040E1F74F
:1001300000C0000065BBAFE9E6E8F1E0A150E04097
:10014000F040E1F700C0000055BBAFE9E6E8F1E0A0
:10015000A150E040F040E1F700C0000045BBAFE92E
:10016000E6E8F1E0A150E040F040E1F700C0000017
:1001700035BBAFE9E6E8F1E0A150E040F040E1F73F
:1001800000C0000025BBAFE9E6E8F1E0A150E04087
:10019000F040E1F700C0000095BBAFE9E6E8F1E010
:1001A000A150E040F040E1F700C0000085BBAFE99E
:1001B000E6E8F1E0A150E040F040E1F700C00000C7
:0601C0005FCFF894FFCFB1
:00000001FF
