:100000000C942A000C943F000C943F000C943F0089
:100010000C943F000C943F000C943F000C943F0064
:100020000C943F000C943F000C943F000C943F0054
:100030000C943F000C943F000C943F000C943F0044
:100040000C943F000C943F000C943F000C943F0034
:100050000C943F0011241FBECFE5D8E0DEBFCDBF1A
:1000600010E0A0E6B0E0EAEEF0E002C005900D92EC
:10007000AA3FB107D9F70E9450000C9473000C946A
:10008000000083B78B6183BF0895009741F0EFE9CB
:10009000FFE03197F1F700C000000197F6CF089517
:1000A0000E94410088E087BB80E58CBFC4E9D0E0B6
:1000B00001E610E0888122968CBFF80191918F01B2
:1000C00080916000989FC00111240E9445001CBED1
:1000D0008FE99FE00197F1F700C0000090E0CA3F70
:0A00E000D90741F7E3CFF894FFCFF2
:1000EA005002020402020402020202060202020290
:1000FA0002020202020202020204040202040202D0
:10010A0004020202020802020202020202020202BD
:10011A0002020208BE00BE00BE00BE00BE00BE0053
:10012A00BE009F00EF00D500BE00AF00AF00AF00D9
:10013A00AF00AF00BE00BE00BE00BE00BE00D500CC
:10014A00D500BE00D5009F00BE00BE00BE00BE00A6
:10015A00BE00BE00BE009F00EF00D500BE00AF008B
:10016A00AF00AF00AF00AF00BE00BE00BE00BE00D1
:0A017A009F009F00AF00D500EF00CA
:00000001FF
